:100000000C948A000C94B2000C94B2000C94B200D0
:100010000C94B2000C94B2000C94B2000C94B20098
:100020000C94B2000C94B2000C94B2000C94B20088
:100030000C94B2000C94B2000C94B2000C94B20078
:100040000C942D110C94B2000C949D110C9477110A
:100050000C94B2000C94B2000C94B2000C94B20058
:100060000C94B2000C94B2007C3C3E5E2B3D3F2FC2
:100070005B5D3B2C2A225C00444F4E4500524241BE
:10008000434B3A00524241434B5F4641494C007753
:1000900072697474656E2D31323300574F50454E7E
:1000A0005F4641494C00524541443A004F50454E4D
:1000B0005F4641494C00424547494E5F4641494CE5
:1000C0000000000008000201000003040700000017
:1000D000000000000000000000250028002B0000A8
:1000E000000000240027002A00040404040404047F
:1000F00004020202020202030303030303010204D7
:100100000810204080010204081020010204081099
:100110002000CF1111241FBECFEFD8E0DEBFCDBF2E
:1001200011E0A0E0B1E0E8E2FBE202C005900D9230
:10013000A235B107D9F724E0A2E5B1E001C01D92D4
:10014000A135B207E1F710E0CAE8D0E004C021977A
:10015000FE010E943114C938D107C9F70E94171255
:100160000C9492150C94000090E0FC01E350FF4FBA
:10017000249187519F4FFC018491882399F090E04E
:10018000880F991FFC01E152FF4FA591B491FC012A
:10019000EB52FF4F859194918FB7F894EC91E22B3D
:1001A000EC938FBF089590E0FC01EF53FF4F249133
:1001B000FC01E350FF4F3491FC01E751FF4FE49104
:1001C000EE23C9F0222339F0233001F1A8F42130C5
:1001D00019F1223029F1F0E0EE0FFF1FEB52FF4F33
:1001E000A591B4918FB7F894EC91611126C0309528
:1001F0003E233C938FBF08952730A9F02830C9F0E3
:10020000243049F7809180008F7D03C08091800069
:100210008F7780938000DFCF84B58F7784BDDBCF6D
:1002200084B58F7DFBCF8091B0008F778093B00035
:10023000D2CF8091B0008F7DF9CF3E2BDACF2FB790
:10024000F89460915F0170916001809161019091DB
:1002500062012FBF0895EF92FF920F931F93CF93E8
:10026000DF938C017B01D0E0C0E0F701EC0FFD1FB4
:100270006491662361F0D801ED91FC910190F081C9
:10028000E02DC8010995892B11F02196EECFCE0102
:10029000DF91CF911F910F91FF90EF900895AF9252
:1002A000BF92CF92DF92EF92FF920F931F93CF9363
:1002B000DF936C017B018B01040F151FEB015E01C5
:1002C000AE18BF08C017D10759F06991D601ED915A
:1002D000FC910190F081E02DC6010995892B79F7F9
:1002E000C501DF91CF911F910F91FF90EF90DF90AB
:1002F000CF90BF90AF90089542E050E06AE371E084
:1003000085E693E00C944F01CF93DF93BC0185E623
:1003100093E00E942B01EC010E947C018C0F9D1F39
:10032000DF91CF910895FC01538D448D252F30E04E
:10033000842F90E0821B930B541710F0CF960895F2
:1003400001970895FC01918D828D981761F0A28D1F
:10035000AE0FBF2FB11D5D968C91928D9F5F9F73E5
:10036000928F90E008958FEF9FEF0895FC01918D9B
:10037000828D981731F0828DE80FF11D858D90E008
:1003800008958FEF9FEF0895FC01918D228D892FA5
:1003900090E0805C9F4F821B91098F73992708958D
:1003A00085E693E00E94C40121E0892B09F420E056
:1003B000822F089580E090E0892B29F00E94D001DF
:1003C00081110C9400000895FC01A48DA80FB92F91
:1003D000B11DA35ABF4F2C91848D90E001968F736D
:1003E0009927848FA689B7892C93A089B1898C918C
:1003F000837080648C93938D848D981306C00288DB
:10040000F389E02D80818F7D80830895EF92FF92A4
:100410000F931F93CF93DF93EC0181E0888F9B8D27
:100420008C8D98131AC0E889F989808185FF15C0E1
:100430009FB7F894EE89FF896083E889F989808104
:100440008370806480839FBF81E090E0DF91CF91D3
:100450001F910F91FF90EF900895F62E0B8D10E0F5
:100460000F5F1F4F0F731127E02E8C8D8E110CC064
:100470000FB607FCFACFE889F989808185FFF5CFAF
:10048000CE010E94E401F1CFEB8DEC0FFD2FF11DA9
:10049000E35AFF4FF0829FB7F8940B8FEA89FB89EC
:1004A00080818062CFCFCF93DF93EC01888D88234A
:1004B000B9F0AA89BB89E889F9898C9185FD03C0C7
:1004C000808186FD0DC00FB607FCF7CF8C9185FFAC
:1004D000F2CF808185FFEDCFCE010E94E401E9CF0C
:1004E000DF91CF9108958FB7F894809153018FBF1A
:1004F000089561E0FC0184810E94D3008091520143
:1005000081111092520108958EBD00000DB407FEB6
:10051000FDCF8EB508958FEF0C9484020F931F9337
:10052000CF93DF93EC010E941F018B010E948B028D
:100530008F3F69F00E941F01601B710B6C177D07D4
:10054000A8F380E0DF91CF911F910F91089581E092
:10055000F9CF8CBD9DBD0895CF93DF93EC018091C1
:100560005201811109C081E08093520180910204FF
:10057000909103040E94A90260E08C81DF91CF91E9
:100580000C94D3008F929F92AF92BF92FF920F93E1
:100590001F93CF93DF93EC01F62E49015A018E8110
:1005A000882389F08F8198859C012F5F3F4F388782
:1005B0002F838230924018F40E948B02F3CFCE0139
:1005C0000E9479021E82CE010E94AC028CE291E070
:1005D0000E948E028F2D80640E94840208E110E048
:1005E000D501C401002E04C0B695A79597958795AF
:1005F0000A94D2F70E94840208501109083F8FEF35
:10060000180771F785E9FF2021F028E087E8F2124A
:100610008FEF0E94840210E00E948B028A8787FF7E
:1006200004C01F3F11F01F5FF7CFDF91CF911F91E3
:100630000F91FF90BF90AF909F908F900895AF92D1
:10064000BF92CF92DF92EF92FF920F931F93CF93BF
:10065000DF93EC016901C801820F931F8130924042
:1006600050F58E81882379F088819981AA81BB8198
:1006700084179507A607B70731F48F819885C816A8
:10068000D90608F042C0488359836A837B838B85EF
:10069000833039F089E0440F551F661F771F8A9514
:1006A000D1F79A01AB0161E1CE010E94C202882319
:1006B00089F083E08D83CE010E94790280E0DF9192
:1006C000CF911F910F91FF90EF90DF90CF90BF904F
:1006D000AF9008950E941F015B010E948B028A87E0
:1006E0008F3F69F40E941F016A197B096D327140C6
:1006F000A0F38FE08D83CE010E947902DCCF8E3F84
:1007000089F418861F8281E08E838F8198858C15ED
:100710009D0550F40E948B028F81988501969887E1
:100720008F83F3CF8DE0E6CF6701E00EF11E0E94CC
:100730008B02F60181936F01EE15FF05C1F78F81E2
:100740009885080F191F18870F838985882319F04A
:1007500001151240A0F08E81882389F08F81988541
:100760009C012F5F3F4F38872F838230924018F4CF
:100770000E948B02F3CFCE010E9479021E8281E09B
:100780009ECFCF92DF92EF92FF920F93CF93DF93A2
:10079000EC01690182E1411551056105710599F08E
:1007A0008B85833039F089E0440F551F661F771F12
:1007B0008A95D1F79A01AB0168E1CE010E94C2028D
:1007C000882319F084E08D832DC08EEF0E9484026F
:1007D00076018EEFD81AF70181917F010E94840281
:1007E000EC14FD04C1F78FEF0E9484028FEF0E948A
:1007F00084020E948B028A878F71853071F4011107
:1008000016C0CE010E94790281E0DF91CF910F9155
:10081000FF90EF90DF90CF90089581E18D83CE011E
:100820000E947902CE010E94790280E0EECF88E535
:1008300092E00E948E02811102C085E1C4CF20E0C7
:1008400030E0A9016DE0CE010E94C202882311F0C0
:1008500084E1B9CF0E948B028111FACFD2CF0F93DE
:100860004091550150915601609157017091580186
:10087000411551056105710599F0082F23E631E016
:1008800080916303909164030E94C103882349F01F
:100890001092550110925601109257011092580172
:1008A00081E00F9108950F93CF93C82F8091540149
:1008B000811105C0C1E08C2FCF910F910895409117
:1008C00000015091010160910201709103010C2F10
:1008D00023E631E080916303909164030E94C10399
:1008E000811102C0C0E0E7CFCC2321F381E00E9458
:1008F0002F048823B9F310925401DDCF8F929F9279
:10090000AF92BF92EF92FF920F931F93CF934B0141
:100910005C01C42F8091000190910101A09102011E
:10092000B091030188159905AA05BB0551F181E035
:100930000E94530481110BC080E0CF911F910F9151
:10094000FF90EF90BF90AF909F908F90089583E6B7
:10095000E82E81E0F82E00E012E030E020E0B50162
:10096000A40180916303909164030E941F03882374
:1009700019F38092000190920101A0920201B092BD
:100980000301409154014C2B4093540181E0D5CF99
:100990008F929F92AF92BF92CF92DF92EF92FF928F
:1009A000CF9324E034E030936403209363038823DF
:1009B00009F46DC040E060E070E0CB010E947E046D
:1009C00081110BC080E0CF91FF90EF90DF90CF902E
:1009D000BF90AF909F908F900895809121038F7763
:1009E00089F780912D0390912E03A0912F03B09150
:1009F000300384369105A105B10520F3C090290389
:100A0000D0902A03E0902B03F0902C03C114D10462
:100A1000E104F104B9F240E0C701B6010E947E048E
:100A2000882381F280916E0190916F01811592402F
:100A300049F6A0917301AA2329F260917101709186
:100A400072016115710509F4BDCF20917001222357
:100A500009F4B8CFA09322042093140490E080E01E
:100A600030E0E1E0F0E0C82FAF01082E02C0440FF3
:100A7000551F0A94E2F72417350769F041E0480F43
:100A800001968930910579F740931D049BCFC12CC5
:100A9000D12C7601C0CF80931D0420917901309133
:100AA0007A0150E040E02115310541F420918701A1
:100AB000309188014091890150918A012093150459
:100AC00030931604409317045093180446015701BD
:100AD000860E971EA11CB11C8092230490922404C0
:100AE000A0922504B0922604E0917401F091750162
:100AF000F0932904E0932804B0E00E942614DC015E
:100B0000CB01880D991DAA1DBB1D80932A049093CB
:100B10002B04A0932C04B0932D0425E0EE0FFF1FAF
:100B20002A95E1F7E150FE4FEF2FFF27E6958E0F54
:100B30009F1FA11DB11D80931E0490931F04A093BD
:100B40002004B09321048090760190907701B12C1D
:100B5000A12C8114910441F4809083019090840130
:100B6000A0908501B0908601C81AD90AEA0AFB0A4A
:100B7000C80CD91CEA1CFB1C04C0F694E794D7945B
:100B8000C794CA95D2F7C0921904D0921A04E09281
:100B90001B04F0921C0485EFC8168FE0D806E10410
:100BA000F10428F48CE08093270481E00CCF80E1ED
:100BB00025EFC2162FEFD206E104F104A0F38091D5
:100BC0008F0190919001A0919101B0919201809339
:100BD0002A0490932B04A0932C04B0932D0480E25C
:100BE000E2CF4F925F926F927F928F929F92AF92DD
:100BF000BF92CF92DF92EF92FF920F931F93CF930A
:100C0000DF93EC01423051056105710590F480E0FD
:100C1000DF91CF911F910F91FF90EF90DF90CF90D8
:100C2000BF90AF909F908F907F906F905F904F900C
:100C3000089589859A85AB85BC850196A11DB11D56
:100C400084179507A607B70710F3CB88DC88ED88D3
:100C5000FE888F89803109F042C0BB27A72F962FCD
:100C6000852F480159012A013B01C80ED91EEA1EF1
:100C7000FB1E8091000190910101A0910201B091B1
:100C80000301C816D906EA06FB0699F58F8980315B
:100C9000C1F5B301A201552766277727440F551FD9
:100CA0004D595E4FFA01918280828091540181609A
:100CB000809354018A89823080F08D819E81AF813A
:100CC000B8858C0D9D1DAE1DBF1D80935501909361
:100CD0005601A0935701B093580181E099CFDB01F1
:100CE000CA01E7E0B695A79597958795EA95D1F75C
:100CF000B8CF40E0C701B6010E947E048111C6CF83
:100D000086CFB301A2014F77552766277727440F77
:100D1000551F440F551F4D595E4FFA018082918235
:100D2000A282B382C2CF8F929F92AF92BF92CF9294
:100D3000DF92EF92FF920F931F93CF93DF93FC010B
:100D400081859285A385B4850196A11DB11D841767
:100D50009507A607B70770F480E0DF91CF911F9148
:100D60000F91FF90EF90DF90CF90BF90AF909F904A
:100D70008F90089583889488A588B6888789803164
:100D800089F5BB27A72F962F852FE9016A017B01E3
:100D90008F01BC01CD01680D791D8A1D9B1D8090BE
:100DA000000190900101A0900201B090030186160D
:100DB0009706A806B90601F5F8018789803111F573
:100DC000DD24EE24FF24F601EE0FFF1FED59FE4F48
:100DD00080819181B0E0A0E088839983AA83BB835E
:100DE00081E0BBCFDB01CA01C7E0B695A795979517
:100DF0008795CA95D1F7C9CF40E00E947E04811142
:100E0000DBCFAACFE894C7F8DD24EE24FF24F60157
:100E1000EE0FFF1FEE0FFF1FED59FE4F80819181F6
:100E2000A281B381BF70D8CF4F925F926F927F92B1
:100E3000AF92BF92CF92DF92EF92FF920F931F93E8
:100E4000CF93DF9300D000D0CDB7DEB78C014983BC
:100E50005A836B837C835901C12CD12C7601412CA0
:100E600082E0582E612C712C49815A816B817C81E2
:100E70009E012F5F3F4FC8010E949306882339F1DE
:100E8000F8018585A301920104C0220F331F441F7E
:100E9000551F8A95D2F7DA01C901C80ED91EEA1E7C
:100EA000FB1E49815A816B817C818789803111F1D8
:100EB00088EF9FEFAFEFBFE0481759076A077B073E
:100EC00098F2F501C082D182E282F38281E00F9034
:100ED0000F900F900F90DF91CF911F910F91FF9086
:100EE000EF90DF90CF90BF90AF907F906F905F902A
:100EF0004F90089588EF9FEFA0E0B0E0DDCFCF9353
:100F0000DF93FC012581222321F080E0DF91CF9146
:100F10000895EC0180912704803159F582E08583A2
:100F2000178A108E118E128E8091280490912904B8
:100F3000B0E0A0E025E0880F991FAA1FBB1F2A95EB
:100F4000D1F7838B948BA58BB68B80E194E09C8F3B
:100F50008B8F81E08C831E821F82188619861A86E9
:100F60001B861C861D861E861F86188A198A1A8A69
:100F7000CDCF803251F683E0858340912A04509191
:100F80002B0460912C0470912D04478B508F618F3E
:100F9000728F9F012D5E3F4F80E194E00E94140705
:100FA0008111D3CFB2CF8F929F92AF92BF92CF9247
:100FB000DF92EF92FF920F931F93CF93DF93EC0199
:100FC0008D8181110EC080E0DF91CF911F910F9133
:100FD000FF90EF90DF90CF90BF90AF909F908F9059
:100FE00008950B891C892D893E890417150726074A
:100FF000370748F34A015B01823031F48A869B86C9
:10100000AC86BD8681E0E0CF81149104A104B104D7
:1010100049F41E821F82188619861A861B861C8632
:101020001D86F0CF0A851B852C853D85EB8DFC8DBB
:10103000858590E00996B901A801415051096109DF
:101040007109082E04C076956795579547950A94BF
:10105000D2F775016401E1E0CE1AD108E108F10888
:1010600004C0F694E794D794C7948A95D2F7C4162F
:10107000D506E606F70620F0012B022B032B11F50F
:101080008F89988DA98DBA8D8E839F83A887B98704
:101090008E010A5F1F4FC114D104E104F10409F469
:1010A000ADCF4E815F816885798598018B8D9C8D50
:1010B0000E94930691E0C91AD108E108F108811154
:1010C000EACF81CFC41AD50AE60AF70AE1CF3F92E8
:1010D0004F925F926F927F928F929F92AF92BF9248
:1010E000CF92DF92EF92FF920F931F93CF93DF93F4
:1010F000CDB7DEB72C970FB6F894DEBF0FBECDBFCD
:101100005C01DC015B968D909C905C9716964D90EF
:101110005D906D907C9019974114510461047104A5
:1011200009F468C0BFEF4B1A5B0A6B0A7B0A312CCB
:10113000F40181859285A385B4859C01AD012F5F63
:101140003F4F4F4F5F4F29873A874B875C8773012B
:1011500062011D821E821F821886F401818592859C
:10116000A385B4852D813E814F8158852817390785
:101170004A075B0708F056C089859A85AB85BC8510
:101180008C159D05AE05BF0550F482E0C82ED12C0C
:10119000E12CF12C92E0492E512C612C712C9E01F6
:1011A0002F5F3F4FB701A601C4010E949306882319
:1011B000C9F189819A81AB81BC81892B8A2B8B2BC8
:1011C00009F1260137019FEF491A590A690A790A7C
:1011D0002D813E814F8158852F5F3F4F4F4F5F4F8D
:1011E0002D833E834F8358873FEFC31AD30AE30A08
:1011F000F30AB3CFF40140805180628073803324BE
:10120000339496CFC414D504E604F70409F70FEF1E
:101210001FEF2FEF3FE0B701A601C4010E94F105C7
:10122000811119C080E02C960FB6F894DEBF0FBE76
:10123000CDBFDF91CF911F910F91FF90EF90DF9085
:10124000CF90BF90AF909F908F907F906F905F9066
:101250004F903F900895D50116964D915D916D91F7
:101260007C911997411551056105710539F0970178
:101270008601C4010E94F1058823A1F2D5011696CA
:10128000CD92DD92ED92FC921997332051F0D70167
:10129000C6010196A11DB11DF40180839183A28333
:1012A000B383F5018789908DA18DB28D892B8A2B0F
:1012B0008B2B39F48481C78AD08EE18EF28E8068C0
:1012C0008483F50184818062848381E0ACCF1F93A5
:1012D000CF93DF93FC0125812223D1F1162FEC015E
:1012E000848187FF2AC0668577858089918941E05E
:1012F0000E947E04882361F1EA8980E2E89FF00180
:101300001124ED59FE4F309719F18D81823040F450
:101310008B899C89AD89BE89848F958FA68FB78F65
:101320008F89988D938F828F8F89988DA98DBA8D93
:10133000B58BA48B8C818F778C83111103C08C812A
:101340008F7E8C83812FDF91CF911F910C9453045A
:1013500080E0DF91CF911F910895FF920F931F932B
:10136000CF93DF93EC018D81813041F090E080E0FC
:10137000DF91CF911F910F91FF9008958C8181FF94
:10138000F5CF82FD1BC00091630310916403C80177
:101390000E94AC020E948B02F82EC8010E947902C2
:1013A0008FEFF812E3CF8C8185FF1BC060E0CE0188
:1013B0000E9467098C818F7D8C83D8CF4B895C8993
:1013C0006D897E898A859B85AC85BD858417950747
:1013D000A607B707C1F2CE010E94D3078111D3CF70
:1013E000C5CF4091550150915601609157017091C0
:1013F0005801452B462B472B21F080E00E942F04FB
:10140000B5CF80618C832A853B85317080E092E086
:10141000821B930BADCFCF93DF93EC0161E00E9471
:101420006709882311F01D8281E0DF91CF91089533
:101430002F923F924F925F926F927F928F929F92E4
:10144000AF92BF92CF92DF92EF92FF920F931F93D2
:10145000CF93DF9300D000D01F92CDB7DEB77C01D1
:101460005B01342E5D83DC0115968C9115978130DC
:1014700009F0CEC014962C9021FECAC022FCB4C044
:10148000C32CDD8022947FE027222094B22DB170FE
:101490002B2ED7011A964D915D916D917C911D97E0
:1014A000C114D10409F428C15B968D919C915C977D
:1014B000FC0174807A948A019B0169E03695279536
:1014C000179507956A95D1F770228A0111707110EE
:1014D00020C001151105E9F416964D915D916D91AD
:1014E0007C911997411551056105710509F099C065
:1014F00057968D919D910D90BC91A02D0097A105BF
:10150000B10509F0B0C0C7010E946708882309F43B
:101510007FC080E092E0801B910B46018C159D05F9
:1015200008F44C01D7015B964D915C915C9716963F
:101530008D919D910D90BC91A02D0297A109B109AB
:10154000FA01258504C0880F991FAA1FBB1F2A9581
:10155000D2F74685578560897189840F951FA61F2C
:10156000B71F9C01AD01270D311D411D511D2901E2
:101570003A01811432E0930609F07BC080910001AA
:1015800090910101A0910201B0910301841595058C
:10159000A605B70559F48FEF9FEFDC01809300019A
:1015A00090930101A0930201B0930301022D9501D4
:1015B000B301A20180916303909164030E94C1036F
:1015C000882331F19EEFB91AC818D908F70182852E
:1015D0009385A485B585880D991DA11DB11D8287B0
:1015E0009387A487B58755CFF701438954896589C7
:1015F000768982859385A485B585481759076A073A
:101600007B0709F43DCFC7010E94D307811138CF72
:1016100081E090E0D70113969C938E93129780E01F
:1016200007C09E012F5F3F4F0E949306811102C0A9
:1016300090E079C089819A81AB81BC81F701238DCB
:10164000348DF901278948EF5FEF60E070E02031C9
:1016500021F048EF5FEF6FEF7FE084179507A60753
:10166000B70708F050CFF70186839783A087B1872B
:1016700050CF0115110599F5D7011A964D915D913D
:101680006D917C911D9753968D919D910D90BC917C
:10169000A02D481759076A077B0708F181E00E94CF
:1016A0005304882309F4B4CF409200015092010101
:1016B00060920201709203018091540181608093D5
:1016C0005401C8018D599E4FD5019C01280D391D2B
:1016D000FC012E173F0759F04D914193FACF41E09D
:1016E000C301B2010E947E048111EBCF91CF281B70
:1016F000390BA20EB31E68CFF70183899489A5899F
:10170000B68984179507A607B70738F48481438BF9
:10171000548B658B768B80688483F701848183FD8D
:101720001AC0832D9D810F900F900F900F900F90F6
:10173000DF91CF911F910F91FF90EF90DF90CF90AD
:10174000BF90AF909F908F907F906F905F904F90E1
:101750003F902F90089561E0C7010E946709882398
:1017600009F456CFDECFCF93DF931F92CDB7DEB70C
:10177000698341E050E0BE016F5F7F4F0E94180A0D
:101780000F90DF91CF910895FC01DB0112968D91AE
:101790009C9113979383828382E391E0918380836A
:1017A00014968C911497848315968C911597858344
:1017B00016964D915D916D917C9119974683578353
:1017C000608771871A964D915D916D917C911D97FF
:1017D00042875387648775871E964D915D916D9101
:1017E0007C91519746875787608B718B52968C916D
:1017F0005297828B53964D915D916D917C91569746
:10180000438B548B658B768B57964D915D916D9183
:101810007C915A97478B508F618F728F5B968D9119
:101820009C91948F838F08950895FC01818D928DF2
:10183000009719F061E00C9467090895DC0159964E
:10184000ED91FC913097B9F083899489A589B68987
:101850004285538564857585841B950BA60BB70B54
:10186000811520E89207A105B10538F08FEF9FE7B9
:10187000A0E0B0E0089590E080E00895DC01599682
:101880008D919C91009739F0DC01ED91FC910480E1
:10189000F581E02D099490E080E00895CF93DF93E7
:1018A000EC01E98DFA8D309749F481E090E09B835B
:1018B0008A8390E080E0DF91CF91089513821282B5
:1018C000898D9A8D0E94180AE98DFA8D22813381C3
:1018D000232B59F7F0CFCF93DF931F92CDB7DEB70D
:1018E0006983DC01ED91FC910280F381E02D41E000
:1018F00050E0BE016F5F7F4F09950F90DF91CF9150
:1019000008952F923F924F925F926F927F928F92A3
:101910009F92AF92BF92CF92DF92EF92FF920F937E
:101920001F93CF93DF9300D01F92CDB7DEB7FC019A
:101930008581811118C08FEF9FEF0F900F900F904E
:10194000DF91CF911F910F91FF90EF90DF90CF909B
:10195000BF90AF909F908F907F906F905F904F90CF
:101960003F902F900895848180FFE5CF438954896B
:101970006589768982859385A485B585312C212C4E
:10198000481759076A077B0719F022242394312C42
:101990006F012101CE0101963C01DF011696BB8348
:1019A000AA834114510409F4C5C0F6014285538548
:1019B000648575854A01F1E09F22D6015B968D9181
:1019C0009C915C978A019B01E9E0369527951795D4
:1019D0000795EA95D1F71596EC91E230E9F5FC010F
:1019E000628D738D848D958D600F711F821F931F83
:1019F000A12C22E0B22EA818B9084A145B0408F4FE
:101A00005201F601248126FD04C0A114F2E0BF06B4
:101A100071F40091000110910101209102013091B7
:101A20000301061717072807390709F05EC040E0D1
:101A30000E947E04882309F47ECFC4018D599E4FF5
:101A4000D3019C012A0D3B1DFC012E173F0709F411
:101A50006CC041914D93F9CFDC011496BC90BA94BF
:101A6000B0228114910479F4B1100DC0452B462B9E
:101A7000472B69F5F6018789908DA18DB28D8683FC
:101A80009783A087B187D6015B96ED91FC915C9717
:101A900016966D917D918D919C9119976250710967
:101AA00081099109258504C0660F771F881F991F3A
:101AB0002A95D2F70685178520893189600F711F15
:101AC000821F931F6B0D711D811D911D91CFD6013A
:101AD00016964D915D916D917C9119972A813B816C
:101AE0000E9493068111CFCF26CF73018501940107
:101AF000AB01BC0180916303909164030E941F03BA
:101B0000882309F418CF6A0C7B1CF6018285938523
:101B1000A485B5858A0D9B1DA11DB11D8287938764
:101B2000A487B5874A185B083CCF281B390B620E87
:101B3000731EEBCF2A94232809F0FDCE898190E013
:101B4000FCCEFC01818D928D009711F00C94810CDC
:101B50008FEF9FEF08950F931F93CF93DF93EC01C7
:101B6000898D9A8D10E000E0009799F00E94810C19
:101B70008C010F3F100769F0898D9A8DFC01428519
:101B800053856485758541505109610971090E9429
:101B9000D307C801DF91CF911F910F910895CF9284
:101BA000DF92EF92FF921F93CF93DF93EC0180E2DD
:101BB000689FF0011124ED59FE4F9385917161F0FA
:101BC000842F827449F080E0DF91CF911F91FF90C4
:101BD000EF90DF90CF900895142F6A8B80910001D1
:101BE00090910101A0910201B09103018E879F871E
:101BF000A88BB98BC488D588F12CE12C7601DD2423
:101C0000CC24CF8AD88EE98EFA8E828D938DB0E067
:101C1000A0E0AC01BD014C295D296E297F294F8BC5
:101C2000588F698F7A8F83858871B1F4848D958DF3
:101C3000A68DB78D8B8B9C8BAD8BBE8B81E08D83FE
:101C40001F701C831E821F82188619861A861B86A7
:101C50001C861D8681E0B8CF803109F0B4CF9E018B
:101C60002D5E3F4F8B8D9C8D0E941407882309F4B5
:101C7000AACF84E0E4CF3F924F925F926F927F921F
:101C80008F929F92AF92BF92CF92DF92EF92FF928C
:101C90000F931F93CF93DF93CDB7DEB72B970FB67C
:101CA000F894DEBF0FBECDBF7C01FE013196CE01A0
:101CB0000C966F0130E23193E817F907E1F7DA018A
:101CC00030E087E09D91B92E992309F43CC09E3203
:101CD000F1F48A30C9F480E02B960FB6F894DEBF99
:101CE0000FBECDBFDF91CF911F910F91FF90EF906D
:101CF000DF90CF90BF90AF909F908F907F906F902C
:101D00005F904F903F90089538E08AE0DBCFE8E69F
:101D1000F0E04491442321F031969413FACFDBCFC5
:101D20008317C8F24FED490F4E35A8F64FE9490F1A
:101D30004A3118F440EEB42EB90EF601E30FF11D4E
:101D4000B0823F5FBFCF8981803229F2322E8B0172
:101D5000DB015B968D919C915C97F701948F838F4B
:101D600016961D921D921D921C921997FB011286C8
:101D7000138614861586F80182859385A485B5851A
:101D8000438954896589768984179507A607B7071B
:101D900008F04DC025E0B695A795979587952A95AB
:101DA000D1F7F82FFF70AF2ED80115968C918230A5
:101DB00008F491CFC8010E94810C97FD8CCFF801E7
:101DC00082859385A485B5854F96A11DB11D828717
:101DD0009387A487B587F0E2AF9EB00111246D59B7
:101DE0007E4F6115710509F476CFDB018C91882354
:101DF00041F0853E09F062C0BB2029F0BB24B394BA
:101E0000BACFB1100EC0F701A28A80910001909163
:101E10000101A0910201B091030186879787A08BF1
:101E2000B18BDB018C918111E9CFBB24B394832D5D
:101E30008271823109F04FCFBB2009F44DC0F70108
:101E4000668577858089918941E00E947E04882398
:101E500009F441CFD70152968C91B0E28B9FC0011B
:101E600011248D599E4F009709F435CFFC013A9605
:101E700026E1DF011D922A95E9F72BE0F601DC014E
:101E800001900D922A95E1F721E238E2FC01318BB5
:101E9000208B40E058E057874687338B228B318F69
:101EA000208F578B468B81E00E945304882309F4CE
:101EB00012CF432DD70152966C910AC04BE050E0EF
:101EC000C6010E946B15892B09F055CF432D6A2D51
:101ED000C7010E94CF0D00CFF8018581823009F43F
:101EE000FACEC8010E946708882309F4F4CED8010D
:101EF0005B96ED91FC915C9716968D909D90AD90C0
:101F0000BC901997B2E08B1A9108A108B108858599
:101F100004C0880C991CAA1CBB1C8A95D2F7868524
:101F20009785A089B189880E991EAA1EBB1E84813F
:101F300024013501480E511C611C711C8414950448
:101F4000A604B70409F1E1E04E1A510861087108CE
:101F500081E00E945304882309F4BDCEE3E6F1E05A
:101F6000119283E693E08E179F07D1F7409200010C
:101F7000509201016092020170920301809154011C
:101F8000816080935401DACFD8015B96ED91FC918A
:101F9000258580E092E0A0E0B0E004C0880F991FA2
:101FA000AA1FBB1F2A95D2F7F80143895489658976
:101FB0007689840F951FA61FB71F838B948BA58BE3
:101FC000B68BD70152961C9283E691E04FCFCF9308
:101FD000DF93EC01898D9A8D009741F00E940B0AE6
:101FE000898D9A8D0E94E2141A8E198EDF91CF91FD
:101FF0000895EF92FF920F931F93CF93DF93EC011D
:102000007B018A011B821A8288EE93E0A0E0B0E097
:102010008C839D83AE83BF838EE091E09983888318
:102020008DE190E00E9446149A8F898F009779F095
:102030002DE1F701DC0101900D922A95E1F74CE0CA
:1020400050E0B801CE010C960E948315188EDF91E6
:10205000CF911F910F91FF90EF9008952F923F9293
:102060004F925F926F927F928F929F92AF92BF92A8
:10207000CF92DF92EF92FF920F931F93CF93DF9354
:10208000CDB7DEB7C556D1090FB6F894DEBF0FBE87
:10209000CDBF6C013B01A6964FAFA69719A218A21F
:1020A00082E391E09F8F8E8F1BA21C821B829A83FA
:1020B00089831E824E018EE1880E911CC4010E940C
:1020C0007F078301FE0131967F0154012F016FE2EA
:1020D00070E0C8010E947815009709F45AC0F80111
:1020E00020812F3269F40F5F1F4F9E2D8F2D7501B8
:1020F000A92EB82E9A2D8B2D5701E92EF82EE7CF59
:10210000801B8D3008F08CE0282E312CA101B80105
:10211000CE01885A9F4F0E948315E8E5F0E0EC0F4E
:10212000FD1FE20DF31D1082C7010E940B0AF7018B
:1021300085818823F1F01EAE1DAE82E391E09CAF55
:102140008BAF21961FAE219710E000E0060D171D02
:10215000F8018081811125C0BE01655C7F4FC201FD
:102160000E94C40B4DE351E0B201C6010E94F90F79
:1021700036C021E0AE01485A5F4FB501C7010E9449
:102180003B0E8823C1F2020D131DC5010E940B0AEC
:10219000B1CF06191709B501CE01CB960E94C40B29
:1021A000D5CF19A218A282E391E09F8F8E8F1BA238
:1021B00021968FAD219781112DC0F60113821282D5
:1021C00088EE93E0A0E0B0E084839583A683B78394
:1021D0008EE091E091838083128E118E1486C60169
:1021E000CB59DF4F0FB6F894DEBF0FBECDBFDF91E6
:1021F000CF911F910F91FF90EF90DF90CF90BF9004
:10220000AF909F908F907F906F905F904F903F9096
:102210002F900895A6962FADA697A801BE01655CE4
:102220007F4FC4010E943B0E882339F2CE01CB962A
:102230000E940B0AA6968FADA6978670863039F459
:1022400049A95AA96BA97CA9C4010E94D307B4016A
:10225000C2010E94C40BA80187CF1F920F920FB634
:102260000F9211242F933F938F939F93AF93BF931C
:1022700080915F0190916001A0916101B091620134
:1022800030915E0123E0230F2D3758F50196A11DF3
:10229000B11D20935E0180935F0190936001A09334
:1022A0006101B093620180915A0190915B01A0910C
:1022B0005C01B0915D010196A11DB11D80935A0191
:1022C00090935B01A0935C01B0935D01BF91AF91CE
:1022D0009F918F913F912F910F900FBE0F901F9064
:1022E000189526E8230F0296A11DB11DD2CF1F928B
:1022F0000F920FB60F9211242F933F934F935F933A
:102300006F937F938F939F93AF93BF93EF93FF93BD
:1023100085E693E00E94E401FF91EF91BF91AF91B8
:102320009F918F917F916F915F914F913F912F91ED
:102330000F900FBE0F901F9018951F920F920FB61F
:102340000F9211242F938F939F93EF93FF93E0911C
:102350007503F09176038081E0917B03F0917C031B
:1023600082FD1BC0908180917E038F5F8F732091CF
:102370007F03821741F0E0917E03F0E0EB59FC4FC0
:10238000958F80937E03FF91EF919F918F912F9175
:102390000F900FBE0F901F9018958081F4CFE5E647
:1023A000F3E01382128288EE93E0A0E0B0E0848331
:1023B0009583A683B78380E291E09183808385EC47
:1023C00090E09587848784EC90E09787868780ECFF
:1023D00090E0918B808B81EC90E0938B828B82ECF0
:1023E00090E0958B848B86EC90E0978B868B118E9A
:1023F000128E138E148EE2E0F4E080E58083118269
:10240000E4E0F4E0158216821186138682E090E003
:10241000A0E0B0E084879587A687B78713A215A6AA
:1024200014A682E391E093A782A717A60895CF93FD
:10243000DF93CDB7DEB7C155D1090FB6F894DEBF33
:102440000FBECDBF789484B5826084BD84B58160B1
:1024500084BD85B5826085BD85B5816085BD80916F
:102460006E00816080936E001092810080918100E7
:1024700082608093810080918100816080938100DF
:10248000809180008160809380008091B1008460A1
:102490008093B1008091B00081608093B000809102
:1024A0007A00846080937A0080917A0082608093C1
:1024B0007A0080917A00816080937A0080917A001E
:1024C000806880937A001092C100E0917503F091CA
:1024D000760382E08083E0917103F09172031082B1
:1024E000E0917303F09174038FEC808310927D036D
:1024F000E0917903F0917A0386E08083E09177039D
:10250000F0917803808180618083E0917703F0917E
:102510007803808188608083E0917703F09178036D
:10252000808180688083E0917703F09178038081D7
:102530008F7D808380913304882321F08EE294E0A4
:102540000E940B0A10920F0410920D0410920A04BC
:10255000109209048AE0809308040E941F018B01F5
:10256000809108040E94B40061E0809108040E94F8
:10257000D300FFB6F89480915901811124C0E3EF94
:10258000F0E08491E7E0F1E09491E82FF0E0EE0FC5
:10259000FF1FE152FF4FA591B491EC91E92321F483
:1025A00061E08AE00E94D3008AE00E94B4008CB50A
:1025B00080618CBD8CB580648CBD8DE00E94B400C0
:1025C0008BE00E94B400809159018F5F8093590184
:1025D000FFBE82E5809302041092030480910204FE
:1025E000909103040E94A9022AE0F22E8FEF0E942C
:1025F0008402FA94F110FACF84E094E00E94AC02D5
:1026000020E030E0A90160E084E094E00E94C20292
:10261000F82E80930E0481E0F816F1F00E941F015D
:10262000601B710B613D774058F381E08093090492
:1026300084E094E00E94790286EB90E00E9484019D
:1026400000E010E001151105E9F30E94D001882394
:10265000C9F30E940000F6CF2AEA31E040E050E0E2
:1026600068E084E094E00E94C20282FF2AC0F092F7
:102670000F0480910F04C12CD12C7601823029F4F3
:10268000C12CD12CE12C80E4F82E20E030E0A9010F
:1026900067E384E094E00E94C202A701960169E228
:1026A00084E094E00E94C20280930E048823D1F05B
:1026B0000E941F01601B710B613D774030F388E081
:1026C000B5CF94E0F92E0E948B0280930E04FA9409
:1026D000F110F9CF8A3A11F082E0A8CF82E080931E
:1026E0000F04C7CF80910F048230D1F420E030E096
:1026F000A9016AE384E094E00E94C202882311F0F9
:1027000086E094CF0E948B02807C803C19F483E0A9
:1027100080930F040E948B020E948B020E948B0206
:1027200084E094E00E94790280E580930204109294
:10273000030481E00E94C8048823B9F08EE294E08B
:102740000E947F07882309F477CF41E06FE371E0AF
:10275000CE01C7960E942E106296EEADFFAD629735
:10276000309751F48CEA90E069CF80E00E94C80471
:10277000882309F461CFE2CF8581882399F366EA43
:1027800070E085E693E00E942B01CE01C7960E947F
:102790001E0C892B51F0CE01C7960E94A10D682F07
:1027A00085E693E00E940602F0CF0E947C01CE01F4
:1027B000C7960E94E70F47E169E471E0CE014C96AD
:1027C0000E942E10EDA9FEA9309719F08581811184
:1027D00003C08BE990E032CF6FE870E0CE014C96F9
:1027E0000E942B01CE014C960E94E70F41E069E464
:1027F00071E0CE0101960E942E10EA8DFB8D30977C
:1028000019F08581811103C084E890E017CF6DE74E
:1028100070E085E693E00E942B01CE0101960E94B4
:102820001E0C892B51F0CE0101960E94A10D682F3C
:1028300085E693E00E940602F0CF0E947C01CE0163
:1028400001960E94E70F88E790E0F8CE0E943714C7
:10285000A59F900DB49F900DA49F800D911D1124F4
:102860000895EE0FFF1F0590F491E02D0994A29FAB
:10287000B001B39FC001A39F700D811D1124911D54
:10288000B29F700D811D1124911D08950F931F9308
:10289000CF93DF938230910510F482E090E0E091D5
:1028A0004F04F091500430E020E0B0E0A0E0309719
:1028B00099F42115310509F44AC0281B390B24303D
:1028C0003105D8F58A819B816115710589F1FB017C
:1028D00093838283FE0111C0408151810281138163
:1028E00048175907E0F04817590799F4109761F015
:1028F00012960C93129713961C933296CF01DF9188
:10290000CF911F910F91089500934F04109350049D
:10291000F4CF2115310551F04217530738F0A901C2
:10292000DB019A01BD01DF01F801C1CFEF01F9CF51
:102930009093500480934F04CDCFFE01E20FF31F1C
:10294000819391932250310939832883D7CF2091E5
:102950004D0430914E04232B41F420910601309117
:10296000070130934E0420934D04209104013091CF
:1029700005012115310541F42DB73EB740910801FD
:1029800050910901241B350BE0914D04F0914E0448
:10299000E217F307A0F42E1B3F0B2817390778F036
:1029A000AC014E5F5F4F2417350748F04E0F5F1F95
:1029B00050934E0440934D04819391939FCFF0E048
:1029C000E0E09CCFCF93DF930097E9F0FC013297D2
:1029D00013821282A0914F04B0915004ED0130E0B7
:1029E00020E01097A1F420813181820F931F209164
:1029F0004D0430914E042817390709F061C0F09357
:102A00004E04E0934D04DF91CF910895EA01CE1773
:102A1000DF07E8F54A815B819E0141155105B1F759
:102A2000E901FB83EA8349915991C40FD51FEC1743
:102A3000FD0761F4808191810296840F951FE90161
:102A400099838883828193819B838A83F0E0E0E08D
:102A500012968D919C9113970097B9F52D913C9109
:102A60001197CD010296820F931F20914D04309152
:102A70004E042817390739F6309751F51092500453
:102A800010924F04B0934E04A0934D04BCCFD38357
:102A9000C28340815181840F951FC817D90761F403
:102AA0004E5F5F4F88819981480F591F5183408342
:102AB0008A819B81938382832115310509F0B0CFF0
:102AC000F0935004E0934F049ECFFD01DC01C0CF92
:102AD00013821282D7CFFB01DC0104C08D910190DB
:102AE000801921F441505040C8F7881B990B089574
:102AF000FC018191861721F08823D9F79927089541
:102B00003197CF010895FB01DC014150504048F05E
:102B100001900D920020C9F701C01D924150504014
:082B2000E0F70895F894FFCFDF
:102B2800FFFFFFFF000051048000000000006B0C55
:102B38004E0C3E0C150C1E0CA10DAB0D0000000038
:102B480006024F0193015302C401A201B60100001D
:102B58000000B30B4F01AD09140C0D0A002F0068DB
:102B6800656C6C6F2E747874006F75742E7478743D
:022B780000005B
:00000001FF
